{"abi":[{"type":"constructor","inputs":[],"stateMutability":"payable"},{"type":"function","name":"chainStats","inputs":[{"name":"","type":"uint256","internalType":"uint256"}],"outputs":[{"name":"length","type":"uint256","internalType":"uint256"},{"name":"topTipper","type":"address","internalType":"address"},{"name":"topTipAmount","type":"uint256","internalType":"uint256"}],"stateMutability":"view"},{"type":"function","name":"fundERC20","inputs":[{"name":"token","type":"address","internalType":"address"},{"name":"amount","type":"uint256","internalType":"uint256"}],"outputs":[],"stateMutability":"nonpayable"},{"type":"function","name":"getChain","inputs":[{"name":"tipId","type":"uint256","internalType":"uint256"}],"outputs":[{"name":"","type":"address[]","internalType":"address[]"}],"stateMutability":"view"},{"type":"function","name":"getChainStats","inputs":[{"name":"tipId","type":"uint256","internalType":"uint256"}],"outputs":[{"name":"length","type":"uint256","internalType":"uint256"},{"name":"topTipper","type":"address","internalType":"address"},{"name":"topTipAmount","type":"uint256","internalType":"uint256"}],"stateMutability":"view"},{"type":"function","name":"hasTipped","inputs":[{"name":"","type":"uint256","internalType":"uint256"},{"name":"","type":"address","internalType":"address"}],"outputs":[{"name":"","type":"bool","internalType":"bool"}],"stateMutability":"view"},{"type":"function","name":"recipientTips","inputs":[{"name":"","type":"address","internalType":"address"},{"name":"","type":"address","internalType":"address"}],"outputs":[{"name":"","type":"uint256","internalType":"uint256"}],"stateMutability":"view"},{"type":"function","name":"setTipChainNFT","inputs":[{"name":"nftAddress","type":"address","internalType":"address"}],"outputs":[],"stateMutability":"nonpayable"},{"type":"function","name":"tipChainNFT","inputs":[],"outputs":[{"name":"","type":"address","internalType":"contract TipChainNFT"}],"stateMutability":"view"},{"type":"function","name":"tipChains","inputs":[{"name":"","type":"uint256","internalType":"uint256"},{"name":"","type":"uint256","internalType":"uint256"}],"outputs":[{"name":"","type":"address","internalType":"address"}],"stateMutability":"view"},{"type":"function","name":"tipERC20","inputs":[{"name":"tipId","type":"uint256","internalType":"uint256"},{"name":"to","type":"address","internalType":"address"},{"name":"token","type":"address","internalType":"address"},{"name":"amount","type":"uint256","internalType":"uint256"}],"outputs":[],"stateMutability":"nonpayable"},{"type":"function","name":"tipETH","inputs":[{"name":"tipId","type":"uint256","internalType":"uint256"},{"name":"to","type":"address","internalType":"address"}],"outputs":[],"stateMutability":"payable"},{"type":"function","name":"userTips","inputs":[{"name":"","type":"address","internalType":"address"},{"name":"","type":"address","internalType":"address"}],"outputs":[{"name":"","type":"uint256","internalType":"uint256"}],"stateMutability":"view"},{"type":"function","name":"withdrawRecipientTips","inputs":[{"name":"token","type":"address","internalType":"address"}],"outputs":[],"stateMutability":"nonpayable"},{"type":"function","name":"withdrawTips","inputs":[{"name":"token","type":"address","internalType":"address"}],"outputs":[],"stateMutability":"nonpayable"},{"type":"event","name":"ChainStatsUpdated","inputs":[{"name":"tipId","type":"uint256","indexed":true,"internalType":"uint256"},{"name":"length","type":"uint256","indexed":false,"internalType":"uint256"},{"name":"topTipper","type":"address","indexed":false,"internalType":"address"},{"name":"topTipAmount","type":"uint256","indexed":false,"internalType":"uint256"}],"anonymous":false},{"type":"event","name":"TipSent","inputs":[{"name":"tipId","type":"uint256","indexed":true,"internalType":"uint256"},{"name":"from","type":"address","indexed":true,"internalType":"address"},{"name":"to","type":"address","indexed":true,"internalType":"address"},{"name":"amount","type":"uint256","indexed":false,"internalType":"uint256"},{"name":"token","type":"address","indexed":false,"internalType":"address"}],"anonymous":false},{"type":"event","name":"TipWithdrawn","inputs":[{"name":"user","type":"address","indexed":true,"internalType":"address"},{"name":"token","type":"address","indexed":true,"internalType":"address"},{"name":"amount","type":"uint256","indexed":false,"internalType":"uint256"}],"anonymous":false},{"type":"error","name":"ReentrancyGuardReentrantCall","inputs":[]}],"bytecode":{"object":"0x608060405260015f8190555061221d806100185f395ff3fe6080604052600436106100dc575f3560e01c806399bad27b1161007e578063d39616ba11610058578063d39616ba146102f6578063de35e48d1461031e578063e11252cf14610346578063ee6978501461036e576100dc565b806399bad27b14610240578063b6791ad41461027c578063c7890bd7146102b8576100dc565b80632c151cde116100ba5780632c151cde1461018457806359e1397a146101c0578063768bceab146101e85780638333060a14610224576100dc565b806315dd73c1146100e057806322b261e91461010a578063299dbd0414610148575b5f5ffd5b3480156100eb575f5ffd5b506100f4610396565b60405161010191906118c0565b60405180910390f35b348015610115575f5ffd5b50610130600480360381019061012b9190611910565b6103bb565b60405161013f9392919061196a565b60405180910390f35b348015610153575f5ffd5b5061016e600480360381019061016991906119c9565b610400565b60405161017b9190611a21565b60405180910390f35b34801561018f575f5ffd5b506101aa60048036038101906101a59190611a3a565b61042a565b6040516101b79190611a78565b60405180910390f35b3480156101cb575f5ffd5b506101e660048036038101906101e19190611a91565b61044a565b005b3480156101f3575f5ffd5b5061020e60048036038101906102099190611acf565b6104cc565b60405161021b9190611b0d565b60405180910390f35b61023e600480360381019061023991906119c9565b610514565b005b34801561024b575f5ffd5b5061026660048036038101906102619190611a3a565b610950565b6040516102739190611a78565b60405180910390f35b348015610287575f5ffd5b506102a2600480360381019061029d9190611910565b610970565b6040516102af9190611bdd565b60405180910390f35b3480156102c3575f5ffd5b506102de60048036038101906102d99190611910565b610a0c565b6040516102ed9392919061196a565b60405180910390f35b348015610301575f5ffd5b5061031c60048036038101906103179190611bfd565b610a5e565b005b348015610329575f5ffd5b50610344600480360381019061033f9190611c61565b610f0a565b005b348015610351575f5ffd5b5061036c60048036038101906103679190611c61565b61121c565b005b348015610379575f5ffd5b50610394600480360381019061038f9190611c61565b61125f565b005b60015f9054906101000a900473ffffffffffffffffffffffffffffffffffffffff1681565b6004602052805f5260405f205f91509050805f015490806001015f9054906101000a900473ffffffffffffffffffffffffffffffffffffffff16908060020154905083565b6003602052815f5260405f20602052805f5260405f205f915091509054906101000a900460ff1681565b6006602052815f5260405f20602052805f5260405f205f91509150505481565b8173ffffffffffffffffffffffffffffffffffffffff166323b872dd3330846040518463ffffffff1660e01b815260040161048793929190611c8c565b6020604051808303815f875af11580156104a3573d5f5f3e3d5ffd5b505050506040513d601f19601f820116820180604052508101906104c79190611ceb565b505050565b6002602052815f5260405f2081815481106104e5575f80fd5b905f5260205f20015f915091509054906101000a900473ffffffffffffffffffffffffffffffffffffffff1681565b61051c611561565b5f341161055e576040517f08c379a000000000000000000000000000000000000000000000000000000000815260040161055590611d70565b60405180910390fd5b60035f8381526020019081526020015f205f3373ffffffffffffffffffffffffffffffffffffffff1673ffffffffffffffffffffffffffffffffffffffff1681526020019081526020015f205f9054906101000a900460ff16156105f7576040517f08c379a00000000000000000000000000000000000000000000000000000000081526004016105ee90611dd8565b60405180910390fd5b60025f8381526020019081526020015f2033908060018154018082558091505060019003905f5260205f20015f9091909190916101000a81548173ffffffffffffffffffffffffffffffffffffffff021916908373ffffffffffffffffffffffffffffffffffffffff160217905550600160035f8481526020019081526020015f205f3373ffffffffffffffffffffffffffffffffffffffff1673ffffffffffffffffffffffffffffffffffffffff1681526020019081526020015f205f6101000a81548160ff0219169083151502179055505f60045f8481526020019081526020015f2090506001815f015f8282546106f19190611e23565b9250508190555080600201543411156107505734816002018190555033816001015f6101000a81548173ffffffffffffffffffffffffffffffffffffffff021916908373ffffffffffffffffffffffffffffffffffffffff1602179055505b3460055f3373ffffffffffffffffffffffffffffffffffffffff1673ffffffffffffffffffffffffffffffffffffffff1681526020019081526020015f205f5f73ffffffffffffffffffffffffffffffffffffffff1673ffffffffffffffffffffffffffffffffffffffff1681526020019081526020015f205f8282546107d79190611e23565b925050819055503460065f8473ffffffffffffffffffffffffffffffffffffffff1673ffffffffffffffffffffffffffffffffffffffff1681526020019081526020015f205f5f73ffffffffffffffffffffffffffffffffffffffff1673ffffffffffffffffffffffffffffffffffffffff1681526020019081526020015f205f8282546108659190611e23565b925050819055508173ffffffffffffffffffffffffffffffffffffffff163373ffffffffffffffffffffffffffffffffffffffff16847fd159c06f705b6dbe7366ad3c32f1b9ed4815e06e13c3353848c163dfdc66191e345f6040516108cc929190611e56565b60405180910390a4827faec4365b7b533594dda53760bca8ce9fc3dbeb62f51c01088d1479cc36952a57825f0154836001015f9054906101000a900473ffffffffffffffffffffffffffffffffffffffff1684600201546040516109329392919061196a565b60405180910390a2610943836115a5565b5061094c61183d565b5050565b6005602052815f5260405f20602052805f5260405f205f91509150505481565b606060025f8381526020019081526020015f20805480602002602001604051908101604052809291908181526020018280548015610a0057602002820191905f5260205f20905b815f9054906101000a900473ffffffffffffffffffffffffffffffffffffffff1673ffffffffffffffffffffffffffffffffffffffff16815260200190600101908083116109b7575b50505050509050919050565b5f5f5f5f60045f8681526020019081526020015f209050805f0154816001015f9054906101000a900473ffffffffffffffffffffffffffffffffffffffff168260020154935093509350509193909250565b5f8111610aa0576040517f08c379a0000000000000000000000000000000000000000000000000000000008152600401610a9790611eed565b60405180910390fd5b60035f8581526020019081526020015f205f3373ffffffffffffffffffffffffffffffffffffffff1673ffffffffffffffffffffffffffffffffffffffff1681526020019081526020015f205f9054906101000a900460ff1615610b39576040517f08c379a0000000000000000000000000000000000000000000000000000000008152600401610b3090611f55565b60405180910390fd5b60025f8581526020019081526020015f2033908060018154018082558091505060019003905f5260205f20015f9091909190916101000a81548173ffffffffffffffffffffffffffffffffffffffff021916908373ffffffffffffffffffffffffffffffffffffffff160217905550600160035f8681526020019081526020015f205f3373ffffffffffffffffffffffffffffffffffffffff1673ffffffffffffffffffffffffffffffffffffffff1681526020019081526020015f205f6101000a81548160ff0219169083151502179055505f60045f8681526020019081526020015f2090506001815f015f828254610c339190611e23565b925050819055508060020154821115610c925781816002018190555033816001015f6101000a81548173ffffffffffffffffffffffffffffffffffffffff021916908373ffffffffffffffffffffffffffffffffffffffff1602179055505b8160055f3373ffffffffffffffffffffffffffffffffffffffff1673ffffffffffffffffffffffffffffffffffffffff1681526020019081526020015f205f8573ffffffffffffffffffffffffffffffffffffffff1673ffffffffffffffffffffffffffffffffffffffff1681526020019081526020015f205f828254610d199190611e23565b925050819055508273ffffffffffffffffffffffffffffffffffffffff166323b872dd3330856040518463ffffffff1660e01b8152600401610d5d93929190611c8c565b6020604051808303815f875af1158015610d79573d5f5f3e3d5ffd5b505050506040513d601f19601f82011682018060405250810190610d9d9190611ceb565b508160065f8673ffffffffffffffffffffffffffffffffffffffff1673ffffffffffffffffffffffffffffffffffffffff1681526020019081526020015f205f8573ffffffffffffffffffffffffffffffffffffffff1673ffffffffffffffffffffffffffffffffffffffff1681526020019081526020015f205f828254610e259190611e23565b925050819055508373ffffffffffffffffffffffffffffffffffffffff163373ffffffffffffffffffffffffffffffffffffffff16867fd159c06f705b6dbe7366ad3c32f1b9ed4815e06e13c3353848c163dfdc66191e8587604051610e8c929190611e56565b60405180910390a4847faec4365b7b533594dda53760bca8ce9fc3dbeb62f51c01088d1479cc36952a57825f0154836001015f9054906101000a900473ffffffffffffffffffffffffffffffffffffffff168460020154604051610ef29392919061196a565b60405180910390a2610f03856115a5565b5050505050565b610f12611561565b5f60065f3373ffffffffffffffffffffffffffffffffffffffff1673ffffffffffffffffffffffffffffffffffffffff1681526020019081526020015f205f8373ffffffffffffffffffffffffffffffffffffffff1673ffffffffffffffffffffffffffffffffffffffff1681526020019081526020015f205490505f8111610fd0576040517f08c379a0000000000000000000000000000000000000000000000000000000008152600401610fc790611fbd565b60405180910390fd5b5f60065f3373ffffffffffffffffffffffffffffffffffffffff1673ffffffffffffffffffffffffffffffffffffffff1681526020019081526020015f205f8473ffffffffffffffffffffffffffffffffffffffff1673ffffffffffffffffffffffffffffffffffffffff1681526020019081526020015f20819055505f73ffffffffffffffffffffffffffffffffffffffff168273ffffffffffffffffffffffffffffffffffffffff160361112e575f3373ffffffffffffffffffffffffffffffffffffffff16826040516110a590612008565b5f6040518083038185875af1925050503d805f81146110df576040519150601f19603f3d011682016040523d82523d5f602084013e6110e4565b606091505b5050905080611128576040517f08c379a000000000000000000000000000000000000000000000000000000000815260040161111f90612066565b60405180910390fd5b506111ab565b8173ffffffffffffffffffffffffffffffffffffffff1663a9059cbb33836040518363ffffffff1660e01b8152600401611169929190612084565b6020604051808303815f875af1158015611185573d5f5f3e3d5ffd5b505050506040513d601f19601f820116820180604052508101906111a99190611ceb565b505b8173ffffffffffffffffffffffffffffffffffffffff163373ffffffffffffffffffffffffffffffffffffffff167f5792aa2c64eaca0232b1a7acae6f580816d753718f35c950ce71c0a9d84d3825836040516112089190611a78565b60405180910390a35061121961183d565b50565b8060015f6101000a81548173ffffffffffffffffffffffffffffffffffffffff021916908373ffffffffffffffffffffffffffffffffffffffff16021790555050565b5f60055f3373ffffffffffffffffffffffffffffffffffffffff1673ffffffffffffffffffffffffffffffffffffffff1681526020019081526020015f205f8373ffffffffffffffffffffffffffffffffffffffff1673ffffffffffffffffffffffffffffffffffffffff1681526020019081526020015f205490505f811161131d576040517f08c379a000000000000000000000000000000000000000000000000000000000815260040161131490611fbd565b60405180910390fd5b5f60055f3373ffffffffffffffffffffffffffffffffffffffff1673ffffffffffffffffffffffffffffffffffffffff1681526020019081526020015f205f8473ffffffffffffffffffffffffffffffffffffffff1673ffffffffffffffffffffffffffffffffffffffff1681526020019081526020015f20819055505f73ffffffffffffffffffffffffffffffffffffffff168273ffffffffffffffffffffffffffffffffffffffff160361147b575f3373ffffffffffffffffffffffffffffffffffffffff16826040516113f290612008565b5f6040518083038185875af1925050503d805f811461142c576040519150601f19603f3d011682016040523d82523d5f602084013e611431565b606091505b5050905080611475576040517f08c379a000000000000000000000000000000000000000000000000000000000815260040161146c906120f5565b60405180910390fd5b506114f8565b8173ffffffffffffffffffffffffffffffffffffffff1663a9059cbb33836040518363ffffffff1660e01b81526004016114b6929190612084565b6020604051808303815f875af11580156114d2573d5f5f3e3d5ffd5b505050506040513d601f19601f820116820180604052508101906114f69190611ceb565b505b8173ffffffffffffffffffffffffffffffffffffffff163373ffffffffffffffffffffffffffffffffffffffff167f5792aa2c64eaca0232b1a7acae6f580816d753718f35c950ce71c0a9d84d3825836040516115559190611a78565b60405180910390a35050565b60025f540361159c576040517f3ee5aeb500000000000000000000000000000000000000000000000000000000815260040160405180910390fd5b60025f81905550565b5f60045f8381526020019081526020015f2090505f815f015490505f6040518060a0016040528060018152602001600381526020016005815260200160078152602001600a81525090505f5f90505b6005811015611836578181600581106116105761160f612113565b5b60200201518303611829575f60025f8781526020019081526020015f20600160025f8981526020019081526020015f208054905061164e9190612140565b8154811061165f5761165e612113565b5b905f5260205f20015f9054906101000a900473ffffffffffffffffffffffffffffffffffffffff1690505f73ffffffffffffffffffffffffffffffffffffffff1660015f9054906101000a900473ffffffffffffffffffffffffffffffffffffffff1673ffffffffffffffffffffffffffffffffffffffff161415801561177e575060015f9054906101000a900473ffffffffffffffffffffffffffffffffffffffff1673ffffffffffffffffffffffffffffffffffffffff1663f8f1147d82886040518363ffffffff1660e01b815260040161173d929190612084565b602060405180830381865afa158015611758573d5f5f3e3d5ffd5b505050506040513d601f19601f8201168201806040525081019061177c9190611ceb565b155b156118235760015f9054906101000a900473ffffffffffffffffffffffffffffffffffffffff1673ffffffffffffffffffffffffffffffffffffffff16635a9d10a28288876040518463ffffffff1660e01b81526004016117e193929190612173565b6020604051808303815f875af11580156117fd573d5f5f3e3d5ffd5b505050506040513d601f19601f8201168201806040525081019061182191906121bc565b505b50611836565b80806001019150506115f4565b5050505050565b60015f81905550565b5f73ffffffffffffffffffffffffffffffffffffffff82169050919050565b5f819050919050565b5f61188861188361187e84611846565b611865565b611846565b9050919050565b5f6118998261186e565b9050919050565b5f6118aa8261188f565b9050919050565b6118ba816118a0565b82525050565b5f6020820190506118d35f8301846118b1565b92915050565b5f5ffd5b5f819050919050565b6118ef816118dd565b81146118f9575f5ffd5b50565b5f8135905061190a816118e6565b92915050565b5f60208284031215611925576119246118d9565b5b5f611932848285016118fc565b91505092915050565b611944816118dd565b82525050565b5f61195482611846565b9050919050565b6119648161194a565b82525050565b5f60608201905061197d5f83018661193b565b61198a602083018561195b565b611997604083018461193b565b949350505050565b6119a88161194a565b81146119b2575f5ffd5b50565b5f813590506119c38161199f565b92915050565b5f5f604083850312156119df576119de6118d9565b5b5f6119ec858286016118fc565b92505060206119fd858286016119b5565b9150509250929050565b5f8115159050919050565b611a1b81611a07565b82525050565b5f602082019050611a345f830184611a12565b92915050565b5f5f60408385031215611a5057611a4f6118d9565b5b5f611a5d858286016119b5565b9250506020611a6e858286016119b5565b9150509250929050565b5f602082019050611a8b5f83018461193b565b92915050565b5f5f60408385031215611aa757611aa66118d9565b5b5f611ab4858286016119b5565b9250506020611ac5858286016118fc565b9150509250929050565b5f5f60408385031215611ae557611ae46118d9565b5b5f611af2858286016118fc565b9250506020611b03858286016118fc565b9150509250929050565b5f602082019050611b205f83018461195b565b92915050565b5f81519050919050565b5f82825260208201905092915050565b5f819050602082019050919050565b611b588161194a565b82525050565b5f611b698383611b4f565b60208301905092915050565b5f602082019050919050565b5f611b8b82611b26565b611b958185611b30565b9350611ba083611b40565b805f5b83811015611bd0578151611bb78882611b5e565b9750611bc283611b75565b925050600181019050611ba3565b5085935050505092915050565b5f6020820190508181035f830152611bf58184611b81565b905092915050565b5f5f5f5f60808587031215611c1557611c146118d9565b5b5f611c22878288016118fc565b9450506020611c33878288016119b5565b9350506040611c44878288016119b5565b9250506060611c55878288016118fc565b91505092959194509250565b5f60208284031215611c7657611c756118d9565b5b5f611c83848285016119b5565b91505092915050565b5f606082019050611c9f5f83018661195b565b611cac602083018561195b565b611cb9604083018461193b565b949350505050565b611cca81611a07565b8114611cd4575f5ffd5b50565b5f81519050611ce581611cc1565b92915050565b5f60208284031215611d0057611cff6118d9565b5b5f611d0d84828501611cd7565b91505092915050565b5f82825260208201905092915050565b7f546970206d757374206265203e203000000000000000000000000000000000005f82015250565b5f611d5a600f83611d16565b9150611d6582611d26565b602082019050919050565b5f6020820190508181035f830152611d8781611d4e565b9050919050565b7f416c726561647920746970706564207468697320636861696e000000000000005f82015250565b5f611dc2601983611d16565b9150611dcd82611d8e565b602082019050919050565b5f6020820190508181035f830152611def81611db6565b9050919050565b7f4e487b71000000000000000000000000000000000000000000000000000000005f52601160045260245ffd5b5f611e2d826118dd565b9150611e38836118dd565b9250828201905080821115611e5057611e4f611df6565b5b92915050565b5f604082019050611e695f83018561193b565b611e76602083018461195b565b9392505050565b7f54697020616d6f756e74206d7573742062652067726561746572207468616e205f8201527f7a65726f00000000000000000000000000000000000000000000000000000000602082015250565b5f611ed7602483611d16565b9150611ee282611e7d565b604082019050919050565b5f6020820190508181035f830152611f0481611ecb565b9050919050565b7f416c72656164792074697070656420696e207468697320636861696e000000005f82015250565b5f611f3f601c83611d16565b9150611f4a82611f0b565b602082019050919050565b5f6020820190508181035f830152611f6c81611f33565b9050919050565b7f4e6f207469707320746f207769746864726177000000000000000000000000005f82015250565b5f611fa7601383611d16565b9150611fb282611f73565b602082019050919050565b5f6020820190508181035f830152611fd481611f9b565b9050919050565b5f81905092915050565b50565b5f611ff35f83611fdb565b9150611ffe82611fe5565b5f82019050919050565b5f61201282611fe8565b9150819050919050565b7f455448207769746864726177206661696c6564000000000000000000000000005f82015250565b5f612050601383611d16565b915061205b8261201c565b602082019050919050565b5f6020820190508181035f83015261207d81612044565b9050919050565b5f6040820190506120975f83018561195b565b6120a4602083018461193b565b9392505050565b7f4661696c656420746f20776974686472617720455448000000000000000000005f82015250565b5f6120df601683611d16565b91506120ea826120ab565b602082019050919050565b5f6020820190508181035f83015261210c816120d3565b9050919050565b7f4e487b71000000000000000000000000000000000000000000000000000000005f52603260045260245ffd5b5f61214a826118dd565b9150612155836118dd565b925082820390508181111561216d5761216c611df6565b5b92915050565b5f6060820190506121865f83018661195b565b612193602083018561193b565b6121a0604083018461193b565b949350505050565b5f815190506121b6816118e6565b92915050565b5f602082840312156121d1576121d06118d9565b5b5f6121de848285016121a8565b9150509291505056fea2646970667358221220b4af63d86e2851d1f5159f86d252d23c3d61340fc72049a216904fc3c07f29d764736f6c634300081c0033","linkReferences":{}},"methodIdentifiers":{"chainStats(uint256)":"22b261e9","fundERC20(address,uint256)":"59e1397a","getChain(uint256)":"b6791ad4","getChainStats(uint256)":"c7890bd7","hasTipped(uint256,address)":"299dbd04","recipientTips(address,address)":"2c151cde","setTipChainNFT(address)":"e11252cf","tipChainNFT()":"15dd73c1","tipChains(uint256,uint256)":"768bceab","tipERC20(uint256,address,address,uint256)":"d39616ba","tipETH(uint256,address)":"8333060a","userTips(address,address)":"99bad27b","withdrawRecipientTips(address)":"de35e48d","withdrawTips(address)":"ee697850"},"id":40}